{
  "_format": "hh-sol-artifact-1",
  "contractName": "Taarifu",
  "sourceName": "contracts/Taarifu.sol",
  "abi": [
    {
      "inputs": [],
      "stateMutability": "nonpayable",
      "type": "constructor"
    },
    {
      "anonymous": false,
      "inputs": [
        {
          "indexed": true,
          "internalType": "uint256",
          "name": "memberId",
          "type": "uint256"
        },
        {
          "indexed": false,
          "internalType": "address",
          "name": "memberAddress",
          "type": "address"
        }
      ],
      "name": "NewMember",
      "type": "event"
    },
    {
      "anonymous": false,
      "inputs": [
        {
          "indexed": true,
          "internalType": "uint256",
          "name": "newsId",
          "type": "uint256"
        },
        {
          "indexed": false,
          "internalType": "address",
          "name": "poster",
          "type": "address"
        },
        {
          "indexed": false,
          "internalType": "string",
          "name": "content",
          "type": "string"
        },
        {
          "indexed": false,
          "internalType": "int256",
          "name": "worthinessVotes",
          "type": "int256"
        },
        {
          "indexed": false,
          "internalType": "int256",
          "name": "totalVotes",
          "type": "int256"
        },
        {
          "indexed": false,
          "internalType": "bool",
          "name": "verified",
          "type": "bool"
        }
      ],
      "name": "NewNewsItem",
      "type": "event"
    },
    {
      "anonymous": false,
      "inputs": [
        {
          "indexed": false,
          "internalType": "address",
          "name": "member",
          "type": "address"
        },
        {
          "indexed": false,
          "internalType": "uint256",
          "name": "validatorId",
          "type": "uint256"
        }
      ],
      "name": "ValidatorElection",
      "type": "event"
    },
    {
      "anonymous": false,
      "inputs": [
        {
          "indexed": true,
          "internalType": "uint256",
          "name": "validatorId",
          "type": "uint256"
        },
        {
          "indexed": false,
          "internalType": "address",
          "name": "memberAddress",
          "type": "address"
        },
        {
          "indexed": false,
          "internalType": "string",
          "name": "_alias",
          "type": "string"
        },
        {
          "indexed": false,
          "internalType": "string",
          "name": "_motivation",
          "type": "string"
        },
        {
          "indexed": false,
          "internalType": "uint256",
          "name": "voteCount",
          "type": "uint256"
        }
      ],
      "name": "ValidatorRequest",
      "type": "event"
    },
    {
      "anonymous": false,
      "inputs": [
        {
          "indexed": false,
          "internalType": "address",
          "name": "voter",
          "type": "address"
        },
        {
          "indexed": false,
          "internalType": "uint256",
          "name": "newsId",
          "type": "uint256"
        },
        {
          "indexed": false,
          "internalType": "bool",
          "name": "vote",
          "type": "bool"
        }
      ],
      "name": "WorthinessVote",
      "type": "event"
    },
    {
      "inputs": [
        {
          "internalType": "string",
          "name": "_alias",
          "type": "string"
        },
        {
          "internalType": "string",
          "name": "motivation",
          "type": "string"
        },
        {
          "internalType": "uint256",
          "name": "requiredPoints",
          "type": "uint256"
        }
      ],
      "name": "becomeValidator",
      "outputs": [
        {
          "internalType": "uint256",
          "name": "",
          "type": "uint256"
        }
      ],
      "stateMutability": "nonpayable",
      "type": "function"
    },
    {
      "inputs": [
        {
          "internalType": "address",
          "name": "",
          "type": "address"
        }
      ],
      "name": "communityPoints",
      "outputs": [
        {
          "internalType": "uint256",
          "name": "",
          "type": "uint256"
        }
      ],
      "stateMutability": "view",
      "type": "function"
    },
    {
      "inputs": [],
      "name": "creator",
      "outputs": [
        {
          "internalType": "address",
          "name": "",
          "type": "address"
        }
      ],
      "stateMutability": "view",
      "type": "function"
    },
    {
      "inputs": [],
      "name": "fetchAllMembers",
      "outputs": [
        {
          "components": [
            {
              "internalType": "uint256",
              "name": "memberId",
              "type": "uint256"
            },
            {
              "internalType": "address",
              "name": "_address",
              "type": "address"
            }
          ],
          "internalType": "struct Taarifu.Member[]",
          "name": "",
          "type": "tuple[]"
        }
      ],
      "stateMutability": "view",
      "type": "function"
    },
    {
      "inputs": [],
      "name": "fetchAllNewsItems",
      "outputs": [
        {
          "components": [
            {
              "internalType": "uint256",
              "name": "newsId",
              "type": "uint256"
            },
            {
              "internalType": "address",
              "name": "poster",
              "type": "address"
            },
            {
              "internalType": "string",
              "name": "content",
              "type": "string"
            },
            {
              "internalType": "int256",
              "name": "worthinessVotes",
              "type": "int256"
            },
            {
              "internalType": "int256",
              "name": "totalVotes",
              "type": "int256"
            },
            {
              "internalType": "bool",
              "name": "verified",
              "type": "bool"
            }
          ],
          "internalType": "struct Taarifu.NewsItem[]",
          "name": "",
          "type": "tuple[]"
        }
      ],
      "stateMutability": "view",
      "type": "function"
    },
    {
      "inputs": [],
      "name": "fetchAllValidators",
      "outputs": [
        {
          "components": [
            {
              "internalType": "uint256",
              "name": "validatorId",
              "type": "uint256"
            },
            {
              "internalType": "address",
              "name": "memberAddress",
              "type": "address"
            },
            {
              "internalType": "string",
              "name": "_alias",
              "type": "string"
            },
            {
              "internalType": "string",
              "name": "motivation",
              "type": "string"
            },
            {
              "internalType": "uint256",
              "name": "voteCount",
              "type": "uint256"
            }
          ],
          "internalType": "struct Taarifu.Validator[]",
          "name": "",
          "type": "tuple[]"
        }
      ],
      "stateMutability": "view",
      "type": "function"
    },
    {
      "inputs": [
        {
          "internalType": "address",
          "name": "",
          "type": "address"
        }
      ],
      "name": "hasVoted",
      "outputs": [
        {
          "internalType": "bool",
          "name": "",
          "type": "bool"
        }
      ],
      "stateMutability": "view",
      "type": "function"
    },
    {
      "inputs": [
        {
          "internalType": "address",
          "name": "",
          "type": "address"
        }
      ],
      "name": "isActiveValidator",
      "outputs": [
        {
          "internalType": "bool",
          "name": "",
          "type": "bool"
        }
      ],
      "stateMutability": "view",
      "type": "function"
    },
    {
      "inputs": [
        {
          "internalType": "address",
          "name": "",
          "type": "address"
        }
      ],
      "name": "isMember",
      "outputs": [
        {
          "internalType": "bool",
          "name": "",
          "type": "bool"
        }
      ],
      "stateMutability": "view",
      "type": "function"
    },
    {
      "inputs": [
        {
          "internalType": "address",
          "name": "",
          "type": "address"
        }
      ],
      "name": "isValidator",
      "outputs": [
        {
          "internalType": "bool",
          "name": "",
          "type": "bool"
        }
      ],
      "stateMutability": "view",
      "type": "function"
    },
    {
      "inputs": [
        {
          "internalType": "address",
          "name": "",
          "type": "address"
        }
      ],
      "name": "lastVoteTime",
      "outputs": [
        {
          "internalType": "uint256",
          "name": "",
          "type": "uint256"
        }
      ],
      "stateMutability": "view",
      "type": "function"
    },
    {
      "inputs": [
        {
          "internalType": "address",
          "name": "",
          "type": "address"
        }
      ],
      "name": "memberVotes",
      "outputs": [
        {
          "internalType": "uint256",
          "name": "",
          "type": "uint256"
        }
      ],
      "stateMutability": "view",
      "type": "function"
    },
    {
      "inputs": [
        {
          "internalType": "uint256",
          "name": "",
          "type": "uint256"
        }
      ],
      "name": "members",
      "outputs": [
        {
          "internalType": "uint256",
          "name": "memberId",
          "type": "uint256"
        },
        {
          "internalType": "address",
          "name": "_address",
          "type": "address"
        }
      ],
      "stateMutability": "view",
      "type": "function"
    },
    {
      "inputs": [],
      "name": "newMember",
      "outputs": [
        {
          "internalType": "uint256",
          "name": "",
          "type": "uint256"
        }
      ],
      "stateMutability": "nonpayable",
      "type": "function"
    },
    {
      "inputs": [
        {
          "internalType": "uint256",
          "name": "",
          "type": "uint256"
        }
      ],
      "name": "newsItems",
      "outputs": [
        {
          "internalType": "uint256",
          "name": "newsId",
          "type": "uint256"
        },
        {
          "internalType": "address",
          "name": "poster",
          "type": "address"
        },
        {
          "internalType": "string",
          "name": "content",
          "type": "string"
        },
        {
          "internalType": "int256",
          "name": "worthinessVotes",
          "type": "int256"
        },
        {
          "internalType": "int256",
          "name": "totalVotes",
          "type": "int256"
        },
        {
          "internalType": "bool",
          "name": "verified",
          "type": "bool"
        }
      ],
      "stateMutability": "view",
      "type": "function"
    },
    {
      "inputs": [
        {
          "internalType": "string",
          "name": "content",
          "type": "string"
        }
      ],
      "name": "postNews",
      "outputs": [
        {
          "internalType": "uint256",
          "name": "",
          "type": "uint256"
        }
      ],
      "stateMutability": "nonpayable",
      "type": "function"
    },
    {
      "inputs": [
        {
          "internalType": "uint256",
          "name": "",
          "type": "uint256"
        }
      ],
      "name": "validators",
      "outputs": [
        {
          "internalType": "uint256",
          "name": "validatorId",
          "type": "uint256"
        },
        {
          "internalType": "address",
          "name": "memberAddress",
          "type": "address"
        },
        {
          "internalType": "string",
          "name": "_alias",
          "type": "string"
        },
        {
          "internalType": "string",
          "name": "motivation",
          "type": "string"
        },
        {
          "internalType": "uint256",
          "name": "voteCount",
          "type": "uint256"
        }
      ],
      "stateMutability": "view",
      "type": "function"
    },
    {
      "inputs": [
        {
          "internalType": "uint256",
          "name": "newsId",
          "type": "uint256"
        }
      ],
      "name": "verifyNews",
      "outputs": [],
      "stateMutability": "nonpayable",
      "type": "function"
    },
    {
      "inputs": [
        {
          "internalType": "uint256",
          "name": "validatorId",
          "type": "uint256"
        },
        {
          "internalType": "uint256",
          "name": "threshold",
          "type": "uint256"
        }
      ],
      "name": "voteForValidator",
      "outputs": [],
      "stateMutability": "nonpayable",
      "type": "function"
    },
    {
      "inputs": [
        {
          "internalType": "uint256",
          "name": "newsId",
          "type": "uint256"
        },
        {
          "internalType": "bool",
          "name": "vote",
          "type": "bool"
        },
        {
          "internalType": "uint256",
          "name": "timeLimit",
          "type": "uint256"
        }
      ],
      "name": "voteWorthiness",
      "outputs": [],
      "stateMutability": "nonpayable",
      "type": "function"
    }
  ],
  "bytecode": "0x608060405234801561001057600080fd5b5033600360006101000a81548173ffffffffffffffffffffffffffffffffffffffff021916908373ffffffffffffffffffffffffffffffffffffffff1602179055506128a7806100616000396000f3fe608060405234801561001057600080fd5b506004361061012b5760003560e01c8063559b69e5116100ad578063d18eca2f11610071578063d18eca2f146103ae578063d5c5aba9146103ca578063dfbcf2f4146103fa578063e0fa82c714610418578063facd743b146104345761012b565b8063559b69e5146102d15780635daf08ca146102ed5780637cafbfc51461031e578063a230c5241461034e578063a3051dc11461037e5761012b565b806335aa2e44116100f457806335aa2e44146101ea5780633cd942fb1461021e57806340550a1c146102535780634a9f914e146102835780634be26fe4146102b35761012b565b8062ae25241461013057806302d05d3f146101605780630947d6ee1461017e57806309eef43e1461019c5780631738e04b146101cc575b600080fd5b61014a6004803603810190610145919061193a565b610464565b6040516101579190612194565b60405180910390f35b61016861047c565b6040516101759190611f4b565b60405180910390f35b6101866104a2565b6040516101939190612194565b60405180910390f35b6101b660048036038101906101b1919061193a565b6105fc565b6040516101c391906120d9565b60405180910390f35b6101d461061c565b6040516101e19190612073565b60405180910390f35b61020460048036038101906101ff9190611a23565b6106db565b604051610215959493929190612240565b60405180910390f35b61023860048036038101906102339190611a23565b610851565b60405161024a969594939291906121d8565b60405180910390f35b61026d6004803603810190610268919061193a565b610952565b60405161027a91906120d9565b60405180910390f35b61029d6004803603810190610298919061193a565b610972565b6040516102aa9190612194565b60405180910390f35b6102bb61098a565b6040516102c89190612095565b60405180910390f35b6102eb60048036038101906102e69190611a4c565b610b0a565b005b61030760048036038101906103029190611a23565b610d7c565b6040516103159291906121af565b60405180910390f35b6103386004803603810190610333919061193a565b610dd0565b6040516103459190612194565b60405180910390f35b6103686004803603810190610363919061193a565b610de8565b60405161037591906120d9565b60405180910390f35b610398600480360381019061039391906119a4565b610e08565b6040516103a59190612194565b60405180910390f35b6103c860048036038101906103c39190611a9b565b6110d2565b005b6103e460048036038101906103df9190611963565b6112e7565b6040516103f19190612194565b60405180910390f35b6104026114ba565b60405161040f91906120b7565b60405180910390f35b610432600480360381019061042d9190611a23565b6116a7565b005b61044e6004803603810190610449919061193a565b6117ac565b60405161045b91906120d9565b60405180910390f35b600d6020528060005260406000206000915090505481565b600360009054906101000a900473ffffffffffffffffffffffffffffffffffffffff1681565b60006104ae60006117cc565b60006104ba60006117e2565b9050600460405180604001604052808381526020013373ffffffffffffffffffffffffffffffffffffffff1681525090806001815401808255809150506001900390600052602060002090600202016000909190919091506000820151816000015560208201518160010160006101000a81548173ffffffffffffffffffffffffffffffffffffffff021916908373ffffffffffffffffffffffffffffffffffffffff16021790555050506001600760003373ffffffffffffffffffffffffffffffffffffffff1673ffffffffffffffffffffffffffffffffffffffff16815260200190815260200160002060006101000a81548160ff021916908315150217905550807fb1f1c82db11bf74f4e3eb23f7b42848af7c4c4ae6e877ab0933db6b9c21b7142336040516105ed9190611f4b565b60405180910390a28091505090565b60086020528060005260406000206000915054906101000a900460ff1681565b60606004805480602002602001604051908101604052809291908181526020016000905b828210156106d25783829060005260206000209060020201604051806040016040529081600082015481526020016001820160009054906101000a900473ffffffffffffffffffffffffffffffffffffffff1673ffffffffffffffffffffffffffffffffffffffff1673ffffffffffffffffffffffffffffffffffffffff168152505081526020019060010190610640565b50505050905090565b600581815481106106eb57600080fd5b90600052602060002090600502016000915090508060000154908060010160009054906101000a900473ffffffffffffffffffffffffffffffffffffffff169080600201805461073a9061255a565b80601f01602080910402602001604051908101604052809291908181526020018280546107669061255a565b80156107b35780601f10610788576101008083540402835291602001916107b3565b820191906000526020600020905b81548152906001019060200180831161079657829003601f168201915b5050505050908060030180546107c89061255a565b80601f01602080910402602001604051908101604052809291908181526020018280546107f49061255a565b80156108415780601f1061081657610100808354040283529160200191610841565b820191906000526020600020905b81548152906001019060200180831161082457829003601f168201915b5050505050908060040154905085565b6006818154811061086157600080fd5b90600052602060002090600602016000915090508060000154908060010160009054906101000a900473ffffffffffffffffffffffffffffffffffffffff16908060020180546108b09061255a565b80601f01602080910402602001604051908101604052809291908181526020018280546108dc9061255a565b80156109295780601f106108fe57610100808354040283529160200191610929565b820191906000526020600020905b81548152906001019060200180831161090c57829003601f168201915b5050505050908060030154908060040154908060050160009054906101000a900460ff16905086565b600b6020528060005260406000206000915054906101000a900460ff1681565b600c6020528060005260406000206000915090505481565b60606006805480602002602001604051908101604052809291908181526020016000905b82821015610b0157838290600052602060002090600602016040518060c0016040529081600082015481526020016001820160009054906101000a900473ffffffffffffffffffffffffffffffffffffffff1673ffffffffffffffffffffffffffffffffffffffff1673ffffffffffffffffffffffffffffffffffffffff168152602001600282018054610a419061255a565b80601f0160208091040260200160405190810160405280929190818152602001828054610a6d9061255a565b8015610aba5780601f10610a8f57610100808354040283529160200191610aba565b820191906000526020600020905b815481529060010190602001808311610a9d57829003601f168201915b5050505050815260200160038201548152602001600482015481526020016005820160009054906101000a900460ff161515151581525050815260200190600101906109ae565b50505050905090565b80600d60003373ffffffffffffffffffffffffffffffffffffffff1673ffffffffffffffffffffffffffffffffffffffff16815260200190815260200160002054610b5591906123cf565b4211610b96576040517f08c379a0000000000000000000000000000000000000000000000000000000008152600401610b8d906120f4565b60405180910390fd5b42600d60003373ffffffffffffffffffffffffffffffffffffffff1673ffffffffffffffffffffffffffffffffffffffff1681526020019081526020016000208190555060006006600185610beb9190612425565b81548110610c22577f4e487b7100000000000000000000000000000000000000000000000000000000600052603260045260246000fd5b906000526020600020906006020190508215610c5757806003016000815480929190610c4d906125bd565b9190505550610c72565b806003016000815480929190610c6c90612511565b91905055505b806004016000815480929190610c87906125bd565b91905055506001600860003373ffffffffffffffffffffffffffffffffffffffff1673ffffffffffffffffffffffffffffffffffffffff16815260200190815260200160002060006101000a81548160ff0219169083151502179055506001600960003373ffffffffffffffffffffffffffffffffffffffff1673ffffffffffffffffffffffffffffffffffffffff1681526020019081526020016000206000828254610d3491906123cf565b925050819055507f231e53b84038a6829a699a131ddbecc797923569abd22cc6ff0a10f80284b875338585604051610d6e9392919061203c565b60405180910390a150505050565b60048181548110610d8c57600080fd5b90600052602060002090600202016000915090508060000154908060010160009054906101000a900473ffffffffffffffffffffffffffffffffffffffff16905082565b60096020528060005260406000206000915090505481565b60076020528060005260406000206000915054906101000a900460ff1681565b600081600960003373ffffffffffffffffffffffffffffffffffffffff1673ffffffffffffffffffffffffffffffffffffffff1681526020019081526020016000205411610e8b576040517f08c379a0000000000000000000000000000000000000000000000000000000008152600401610e8290612114565b60405180910390fd5b600a60003373ffffffffffffffffffffffffffffffffffffffff1673ffffffffffffffffffffffffffffffffffffffff16815260200190815260200160002060009054906101000a900460ff1615610f18576040517f08c379a0000000000000000000000000000000000000000000000000000000008152600401610f0f90612134565b60405180910390fd5b610f2260026117cc565b6000610f2e60026117e2565b905060056040518060a001604052808381526020013373ffffffffffffffffffffffffffffffffffffffff168152602001878152602001868152602001600081525090806001815401808255809150506001900390600052602060002090600502016000909190919091506000820151816000015560208201518160010160006101000a81548173ffffffffffffffffffffffffffffffffffffffff021916908373ffffffffffffffffffffffffffffffffffffffff16021790555060408201518160020190805190602001906110069291906117f0565b5060608201518160030190805190602001906110239291906117f0565b506080820151816004015550506001600a60003373ffffffffffffffffffffffffffffffffffffffff1673ffffffffffffffffffffffffffffffffffffffff16815260200190815260200160002060006101000a81548160ff021916908315150217905550807f245f768328aca4b5d013133e59bdcf6a6fd9ad054e8525f3d9a85409c718ad1133878760006040516110bf9493929190611fc0565b60405180910390a2809150509392505050565b6002600c60003373ffffffffffffffffffffffffffffffffffffffff1673ffffffffffffffffffffffffffffffffffffffff1681526020019081526020016000205410611154576040517f08c379a000000000000000000000000000000000000000000000000000000000815260040161114b90612174565b60405180910390fd5b600060056001846111659190612425565b8154811061119c577f4e487b7100000000000000000000000000000000000000000000000000000000600052603260045260246000fd5b90600052602060002090600502019050600c60003373ffffffffffffffffffffffffffffffffffffffff1673ffffffffffffffffffffffffffffffffffffffff16815260200190815260200160002060008154809291906111fc90612606565b919050555080600401600081548092919061121690612606565b91905055506000816004015490508281106112a8576001600b60008460010160009054906101000a900473ffffffffffffffffffffffffffffffffffffffff1673ffffffffffffffffffffffffffffffffffffffff1673ffffffffffffffffffffffffffffffffffffffff16815260200190815260200160002060006101000a81548160ff0219169083151502179055505b7f3dba0567d1dad25cbd1adf1a5a9b9a23bc2e50c1d6d46f671d1c6f65a00765e133856040516112d9929190612013565b60405180910390a150505050565b60006112f360016117cc565b60006112ff60016117e2565b905060066040518060c001604052808381526020013373ffffffffffffffffffffffffffffffffffffffff16815260200185815260200160008152602001600081526020016000151581525090806001815401808255809150506001900390600052602060002090600602016000909190919091506000820151816000015560208201518160010160006101000a81548173ffffffffffffffffffffffffffffffffffffffff021916908373ffffffffffffffffffffffffffffffffffffffff16021790555060408201518160020190805190602001906113e19291906117f0565b50606082015181600301556080820151816004015560a08201518160050160006101000a81548160ff02191690831515021790555050506005600960003373ffffffffffffffffffffffffffffffffffffffff1673ffffffffffffffffffffffffffffffffffffffff168152602001908152602001600020600082825461146891906123cf565b92505081905550807f7440fd95b88e8d2ea479ebee09f08881868ab6b36072f89ff05e04234ede258d338560008060006040516114a9959493929190611f66565b60405180910390a280915050919050565b60606005805480602002602001604051908101604052809291908181526020016000905b8282101561169e57838290600052602060002090600502016040518060a0016040529081600082015481526020016001820160009054906101000a900473ffffffffffffffffffffffffffffffffffffffff1673ffffffffffffffffffffffffffffffffffffffff1673ffffffffffffffffffffffffffffffffffffffff1681526020016002820180546115719061255a565b80601f016020809104026020016040519081016040528092919081815260200182805461159d9061255a565b80156115ea5780601f106115bf576101008083540402835291602001916115ea565b820191906000526020600020905b8154815290600101906020018083116115cd57829003601f168201915b505050505081526020016003820180546116039061255a565b80601f016020809104026020016040519081016040528092919081815260200182805461162f9061255a565b801561167c5780601f106116515761010080835404028352916020019161167c565b820191906000526020600020905b81548152906001019060200180831161165f57829003601f168201915b50505050508152602001600482015481525050815260200190600101906114de565b50505050905090565b600b60003373ffffffffffffffffffffffffffffffffffffffff1673ffffffffffffffffffffffffffffffffffffffff16815260200190815260200160002060009054906101000a900460ff16611733576040517f08c379a000000000000000000000000000000000000000000000000000000000815260040161172a90612154565b60405180910390fd5b600060066001836117449190612425565b8154811061177b577f4e487b7100000000000000000000000000000000000000000000000000000000600052603260045260246000fd5b9060005260206000209060060201905060018160050160006101000a81548160ff0219169083151502179055505050565b600a6020528060005260406000206000915054906101000a900460ff1681565b6001816000016000828254019250508190555050565b600081600001549050919050565b8280546117fc9061255a565b90600052602060002090601f01602090048101928261181e5760008555611865565b82601f1061183757805160ff1916838001178555611865565b82800160010185558215611865579182015b82811115611864578251825591602001919060010190611849565b5b5090506118729190611876565b5090565b5b8082111561188f576000816000905550600101611877565b5090565b60006118a66118a1846122c6565b6122a1565b9050828152602081018484840111156118be57600080fd5b6118c98482856124cf565b509392505050565b6000813590506118e08161282c565b92915050565b6000813590506118f581612843565b92915050565b600082601f83011261190c57600080fd5b813561191c848260208601611893565b91505092915050565b6000813590506119348161285a565b92915050565b60006020828403121561194c57600080fd5b600061195a848285016118d1565b91505092915050565b60006020828403121561197557600080fd5b600082013567ffffffffffffffff81111561198f57600080fd5b61199b848285016118fb565b91505092915050565b6000806000606084860312156119b957600080fd5b600084013567ffffffffffffffff8111156119d357600080fd5b6119df868287016118fb565b935050602084013567ffffffffffffffff8111156119fc57600080fd5b611a08868287016118fb565b9250506040611a1986828701611925565b9150509250925092565b600060208284031215611a3557600080fd5b6000611a4384828501611925565b91505092915050565b600080600060608486031215611a6157600080fd5b6000611a6f86828701611925565b9350506020611a80868287016118e6565b9250506040611a9186828701611925565b9150509250925092565b60008060408385031215611aae57600080fd5b6000611abc85828601611925565b9250506020611acd85828601611925565b9150509250929050565b6000611ae38383611df8565b60408301905092915050565b6000611afb8383611e27565b905092915050565b6000611b0f8383611eb0565b905092915050565b611b2081612459565b82525050565b611b2f81612459565b82525050565b6000611b4082612327565b611b4a818561237a565b9350611b55836122f7565b8060005b83811015611b86578151611b6d8882611ad7565b9750611b7883612353565b925050600181019050611b59565b5085935050505092915050565b6000611b9e82612332565b611ba8818561238b565b935083602082028501611bba85612307565b8060005b85811015611bf65784840389528151611bd78582611aef565b9450611be283612360565b925060208a01995050600181019050611bbe565b50829750879550505050505092915050565b6000611c138261233d565b611c1d818561239c565b935083602082028501611c2f85612317565b8060005b85811015611c6b5784840389528151611c4c8582611b03565b9450611c578361236d565b925060208a01995050600181019050611c33565b50829750879550505050505092915050565b611c868161246b565b82525050565b611c958161246b565b82525050565b611ca481612477565b82525050565b611cb381612477565b82525050565b611cc2816124ab565b82525050565b611cd1816124bd565b82525050565b6000611ce282612348565b611cec81856123ad565b9350611cfc8185602086016124de565b611d05816126dc565b840191505092915050565b6000611d1b82612348565b611d2581856123be565b9350611d358185602086016124de565b611d3e816126dc565b840191505092915050565b6000611d566020836123be565b9150611d61826126ed565b602082019050919050565b6000611d79602d836123be565b9150611d8482612716565b604082019050919050565b6000611d9c6035836123be565b9150611da782612765565b604082019050919050565b6000611dbf6018836123be565b9150611dca826127b4565b602082019050919050565b6000611de2602a836123be565b9150611ded826127dd565b604082019050919050565b604082016000820151611e0e6000850182611f2d565b506020820151611e216020850182611b17565b50505050565b600060c083016000830151611e3f6000860182611f2d565b506020830151611e526020860182611b17565b5060408301518482036040860152611e6a8282611cd7565b9150506060830151611e7f6060860182611c9b565b506080830151611e926080860182611c9b565b5060a0830151611ea560a0860182611c7d565b508091505092915050565b600060a083016000830151611ec86000860182611f2d565b506020830151611edb6020860182611b17565b5060408301518482036040860152611ef38282611cd7565b91505060608301518482036060860152611f0d8282611cd7565b9150506080830151611f226080860182611f2d565b508091505092915050565b611f36816124a1565b82525050565b611f45816124a1565b82525050565b6000602082019050611f606000830184611b26565b92915050565b600060a082019050611f7b6000830188611b26565b8181036020830152611f8d8187611d10565b9050611f9c6040830186611cb9565b611fa96060830185611cb9565b611fb66080830184611c8c565b9695505050505050565b6000608082019050611fd56000830187611b26565b8181036020830152611fe78186611d10565b90508181036040830152611ffb8185611d10565b905061200a6060830184611cc8565b95945050505050565b60006040820190506120286000830185611b26565b6120356020830184611f3c565b9392505050565b60006060820190506120516000830186611b26565b61205e6020830185611f3c565b61206b6040830184611c8c565b949350505050565b6000602082019050818103600083015261208d8184611b35565b905092915050565b600060208201905081810360008301526120af8184611b93565b905092915050565b600060208201905081810360008301526120d18184611c08565b905092915050565b60006020820190506120ee6000830184611c8c565b92915050565b6000602082019050818103600083015261210d81611d49565b9050919050565b6000602082019050818103600083015261212d81611d6c565b9050919050565b6000602082019050818103600083015261214d81611d8f565b9050919050565b6000602082019050818103600083015261216d81611db2565b9050919050565b6000602082019050818103600083015261218d81611dd5565b9050919050565b60006020820190506121a96000830184611f3c565b92915050565b60006040820190506121c46000830185611f3c565b6121d16020830184611b26565b9392505050565b600060c0820190506121ed6000830189611f3c565b6121fa6020830188611b26565b818103604083015261220c8187611d10565b905061221b6060830186611caa565b6122286080830185611caa565b61223560a0830184611c8c565b979650505050505050565b600060a0820190506122556000830188611f3c565b6122626020830187611b26565b81810360408301526122748186611d10565b905081810360608301526122888185611d10565b90506122976080830184611f3c565b9695505050505050565b60006122ab6122bc565b90506122b7828261258c565b919050565b6000604051905090565b600067ffffffffffffffff8211156122e1576122e06126ad565b5b6122ea826126dc565b9050602081019050919050565b6000819050602082019050919050565b6000819050602082019050919050565b6000819050602082019050919050565b600081519050919050565b600081519050919050565b600081519050919050565b600081519050919050565b6000602082019050919050565b6000602082019050919050565b6000602082019050919050565b600082825260208201905092915050565b600082825260208201905092915050565b600082825260208201905092915050565b600082825260208201905092915050565b600082825260208201905092915050565b60006123da826124a1565b91506123e5836124a1565b9250827fffffffffffffffffffffffffffffffffffffffffffffffffffffffffffffffff0382111561241a5761241961264f565b5b828201905092915050565b6000612430826124a1565b915061243b836124a1565b92508282101561244e5761244d61264f565b5b828203905092915050565b600061246482612481565b9050919050565b60008115159050919050565b6000819050919050565b600073ffffffffffffffffffffffffffffffffffffffff82169050919050565b6000819050919050565b60006124b682612477565b9050919050565b60006124c8826124a1565b9050919050565b82818337600083830152505050565b60005b838110156124fc5780820151818401526020810190506124e1565b8381111561250b576000848401525b50505050565b600061251c82612477565b91507f800000000000000000000000000000000000000000000000000000000000000082141561254f5761254e61264f565b5b600182039050919050565b6000600282049050600182168061257257607f821691505b602082108114156125865761258561267e565b5b50919050565b612595826126dc565b810181811067ffffffffffffffff821117156125b4576125b36126ad565b5b80604052505050565b60006125c882612477565b91507f7fffffffffffffffffffffffffffffffffffffffffffffffffffffffffffffff8214156125fb576125fa61264f565b5b600182019050919050565b6000612611826124a1565b91507fffffffffffffffffffffffffffffffffffffffffffffffffffffffffffffffff8214156126445761264361264f565b5b600182019050919050565b7f4e487b7100000000000000000000000000000000000000000000000000000000600052601160045260246000fd5b7f4e487b7100000000000000000000000000000000000000000000000000000000600052602260045260246000fd5b7f4e487b7100000000000000000000000000000000000000000000000000000000600052604160045260246000fd5b6000601f19601f8301169050919050565b7f596f752063616e20766f746520616761696e206166746572203130206d696e73600082015250565b7f596f7520646f206e6f74206d6565742074686520726571756972656420636f6d60008201527f6d756e69747920706f696e747300000000000000000000000000000000000000602082015250565b7f596f752068616420616c7265616479207375626d69747465642061207265717560008201527f65737420746f20626520612076616c696461746f720000000000000000000000602082015250565b7f56616c696461746f72206973206e6f74206163746976652e0000000000000000600082015250565b7f4d656d6265722068617320616c726561647920766f74656420666f722032207660008201527f616c696461746f72732e00000000000000000000000000000000000000000000602082015250565b61283581612459565b811461284057600080fd5b50565b61284c8161246b565b811461285757600080fd5b50565b612863816124a1565b811461286e57600080fd5b5056fea264697066735822122044c48d2fc0ae0ec914c11acc3402e750f34f96b4bbb00bb06e52264564bddf1c64736f6c63430008040033",
  "linkReferences": {},
  "deployedLinkReferences": {}
}